:020000040800F2
:1000000000500020C92B0008712A0008732A00083C
:10001000752A0008772A0008792A000800000000E5
:100020000000000000000000000000007B2A000823
:100030007D2A0008000000007F2A0008812A0008AD
:10004000112C0008112C0008112C0008112C00089C
:10005000112C0008112C0008112C0008112C00088C
:10006000112C0008112C0008112C0008112C00087C
:10007000112C0008112C0008112C0008112C00086C
:10008000112C0008112C0008112C0008112C00085C
:10009000112C0008112C0008112C0008112C00084C
:1000A000112C0008112C0008112C0008112C00083C
:1000B000112C0008112C0008112C0008112C00082C
:1000C000112C0008112C0008112C0008112C00081C
:1000D000112C0008112C0008112C0008112C00080C
:1000E000112C0008112C0008112C00080000000041
:1000F0000000000000000000000000000000000000
:0C01000000000000000000005FF808F1A3
:100110004FF0FF0C1CEAD0521EBF1CEAD15392EAEA
:100120000C0F93EA0C0F6FD01A4480EA010C4002C6
:1001300018BF5FEA41211ED04FF0006343EA501020
:1001400043EA5111A0FB01310CF00040B1F5000F62
:100150003EBF490041EAD3715B0040EA010062F111
:100160007F02FD2A1DD8B3F1004F40EBC25008BFFB
:1001700020F00100704790F0000F0CF0004C08BF19
:1001800049024CEA502040EA51207F3AC2BFD2F1E6
:10019000FF0340EAC250704740F400004FF00003F4
:1001A000013A5DDC12F1190FDCBF00F0004070472E
:1001B000C2F10002410021FA02F1C2F1200200FA6C
:1001C00002FC5FEA310040F1000053EA4C0308BF33
:1001D00020EADC70704792F0000F00F0004C02BF84
:1001E000400010F4000F013AF9D040EA0C0093F0FF
:1001F000000F01F0004C02BF490011F4000F013B59
:10020000F9D041EA0C018FE70CEAD15392EA0C0FC6
:1002100018BF93EA0C0F0AD030F0004C18BF31F031
:10022000004CD8D180EA010000F00040704790F007
:10023000000F17BF90F0004F084691F0000F91F0AB
:10024000004F14D092EA0C0F01D142020FD193EA71
:100250000C0F03D14B0218BF084608D180EA0100F9
:1002600000F0004040F0FE4040F40000704740F0D5
:10027000FE4040F44000704781F0004102E000BFC2
:1002800083F0004330B54FEA41044FEA430594EA56
:10029000050F08BF90EA020F1FBF54EA000C55EA91
:1002A000020C7FEA645C7FEA655C00F0E2804FEA62
:1002B0005454D4EB5555B8BF6D420CDD2C4480EA44
:1002C000020281EA030382EA000083EA010180EA74
:1002D000020281EA0303362D88BF30BD11F0004FC2
:1002E0004FEA01314FF4801C4CEA113102D04042F8
:1002F00061EB410113F0004F4FEA03334CEA133333
:1003000002D0524263EB430394EA050F00F0A7804A
:10031000A4F10104D5F1200E0DDB02FA0EFC22FA45
:1003200005F2801841F1000103FA0EF2801843FA39
:1003300005F359410EE0A5F120050EF1200E012A2A
:1003400003FA0EFC28BF4CF0020C43FA05F3C01868
:1003500051EBE37101F0004507D54FF0000EDCF1E1
:10036000000C7EEB00006EEB0101B1F5801F1BD38A
:10037000B1F5001F0CD349085FEA30004FEA3C0C8E
:1003800004F101044FEA445212F5800F80F09A8084
:10039000BCF1004F08BF5FEA500C50F1000041EB88
:1003A000045141EA050130BD5FEA4C0C404141EB8C
:1003B0000101013C28BFB1F5801FE9D291F0000F87
:1003C00004BF01460020B1FA81F308BF2033A3F136
:1003D0000B03B3F120020CDA0C3208DD02F1140C2D
:1003E000C2F10C0201FA0CF021FA02F10CE002F168
:1003F0001402D8BFC2F1200C01FA02F120FA0CFC61
:10040000DCBF41EA0C019040E41AA2BF01EB0451A9
:10041000294330BD6FEA04041F3C1CDA0C340EDCA7
:1004200004F11404C4F1200220FA04F001FA02F3EA
:1004300040EA030021FA04F345EA030130BDC4F1A8
:100440000C04C4F1200220FA02F001FA04F340EA9D
:100450000300294630BD21FA04F0294630BD94F04E
:10046000000F83F4801306BF81F480110134013D35
:100470004EE77FEA645C18BF7FEA655C29D094EAA6
:10048000050F08BF90EA020F05D054EA000C04BF24
:100490001946104630BD91EA030F1EBF002100200F
:1004A00030BD5FEA545C05D14000494128BF41F0AE
:1004B000004130BD14F580043CBF01F5801130BD12
:1004C00001F0004545F0FE4141F470014FF000009D
:1004D00030BD7FEA645C1ABF194610467FEA655C4E
:1004E0001CBF0B46024650EA013406BF52EA0335F0
:1004F00091EA030F41F4002130BD00BF90F0000FDE
:1005000004BF0021704730B54FF4806404F1320419
:100510004FF000054FF0000150E700BF90F0000FD2
:1005200004BF0021704730B54FF4806404F13204F9
:1005300010F0004548BF40424FF000013EE700BFC9
:1005400042004FEAE2014FEA31014FEA02701FBF59
:1005500012F07F4393F07F4F81F06051704732F08B
:100560007F4208BF704793F07F4F04BF41F40021E2
:10057000704730B54FF4607401F0004521F0004140
:100580001CE700BF50EA010208BF704730B54FF0CA
:1005900000050AE050EA010208BF704730B511F0CB
:1005A000004502D5404261EB41014FF4806404F103
:1005B00032045FEA915C3FF4D8AE4FF003025FEA89
:1005C000DC0C18BF03325FEADC0C18BF033202EB0D
:1005D000DC02C2F1200300FA03FC20FA02F001FA67
:1005E00003FE40EA0E0021FA02F11444BDE600BF0A
:1005F00070B54FF0FF0C4CF4E06C1CEA11541DBFB9
:100600001CEA135594EA0C0F95EA0C0F00F0DEF883
:100610002C4481EA030621EA4C5123EA4C5350EA68
:10062000013518BF52EA033541F4801143F48013B9
:1006300038D0A0FB02CE4FF00005E1FB02E506F04A
:100640000042E0FB03E54FF00006E1FB03569CF09F
:10065000000F18BF4EF0010EA4F1FF04B6F5007FA5
:1006600064F5407404D25FEA4E0E6D4146EB060617
:1006700042EAC62141EA55514FEAC52040EA5E50A0
:100680004FEACE2EB4F1FD0C88BFBCF5E06F1ED84A
:10069000BEF1004F08BF5FEA500E50F1000041EB81
:1006A000045170BD06F0004646EA010140EA02002E
:1006B00081EA0301B4EB5C04C2BFD4EB0C0541EA50
:1006C000045170BD41F480114FF0000E013C00F365
:1006D000AB8014F1360FDEBF002001F0004170BD89
:1006E000C4F10004203C35DA0C341BDC04F11404A2
:1006F000C4F1200500FA05F320FA04F001FA05F22E
:1007000040EA020001F0004221F0004110EBD370FA
:1007100021FA04F642EB06015EEA430E08BF20EA26
:10072000D37070BDC4F10C04C4F1200500FA04F3C9
:1007300020FA05F001FA04F240EA020001F000415B
:1007400010EBD37041F100015EEA430E08BF20EACE
:10075000D37070BDC4F1200500FA05F24EEA020E16
:1007600020FA04F301FA05F243EA020321FA04F045
:1007700001F0004121FA04F220EA020000EBD370FC
:100780005EEA430E08BF20EAD37070BD94F0000FFC
:100790000FD101F00046400041EB010111F4801F30
:1007A00008BF013CF7D041EA060195F0000F18BFE1
:1007B000704703F00046520043EB030313F4801F1D
:1007C00008BF013DF7D043EA0603704794EA0C0FD7
:1007D0000CEA135518BF95EA0C0F0CD050EA4106ED
:1007E00018BF52EA4306D1D181EA030101F000416A
:1007F0004FF0000070BD50EA410606BF1046194692
:1008000052EA430619D094EA0C0F02D150EA01369D
:1008100013D195EA0C0F05D152EA03361CBF1046DE
:1008200019460AD181EA030101F0004141F0FE417D
:1008300041F470014FF0000070BD41F0FE4141F401
:10084000780170BD70B54FF0FF0C4CF4E06C1CEA01
:1008500011541DBF1CEA135594EA0C0F95EA0C0FB6
:1008600000F0A7F8A4EB050481EA030E52EA033571
:100870004FEA013100F088804FEA03334FF0805592
:1008800045EA131343EA12634FEA022245EA1115BF
:1008900045EA10654FEA00260EF000419D4208BF70
:1008A000964244F1FD0404F5407402D25B084FEA1D
:1008B0003202B61A65EB03055B084FEA32024FF4C9
:1008C00080104FF4002CB6EB020E75EB030E22BF26
:1008D000B61A754640EA0C005B084FEA3202B6EBE6
:1008E000020E75EB030E22BFB61A754640EA5C0095
:1008F0005B084FEA3202B6EB020E75EB030E22BF25
:10090000B61A754640EA9C005B084FEA3202B6EB25
:10091000020E75EB030E22BFB61A754640EADC00E4
:1009200055EA060E18D04FEA051545EA16754FEA46
:1009300006164FEAC30343EA52734FEAC2025FEA64
:100940001C1CC0D111F4801F0BD141EA00014FF0F3
:1009500000004FF0004CB6E711F4801F04BF0143C4
:100960000020B4F1FD0C88BFBCF5E06F3FF6AFAEE0
:10097000B5EB030C04BFB6EB020C5FEA500C50F170
:10098000000041EB045170BD0EF0004E4EEA1131F3
:1009900014EB5C04C2BFD4EB0C0541EA045170BDFA
:1009A00041F480114FF0000E013C90E645EA060E3E
:1009B0008DE60CEA135594EA0C0F08BF95EA0C0F6C
:1009C0003FF43BAF94EA0C0F0AD150EA01347FF4B4
:1009D00034AF95EA0C0F7FF425AF104619462CE78B
:1009E00095EA0C0F06D152EA03353FF4FDAE1046EE
:1009F000194622E750EA410618BF52EA43067FF43F
:100A0000C5AE50EA41047FF40DAF52EA43057FF4CE
:100A1000EBAE12E74A0011D212F5001211D20DD539
:100A20006FF47873B3EB62520ED44FEAC12343F0F4
:100A3000004343EA505323FA02F070474FF000009E
:100A4000704750EA013002D14FF0FF3070474FF04D
:100A50000000704780F0004002E000BF81F00041DC
:100A600042001FBF5FEA410392EA030F7FEA226C54
:100A70007FEA236C6AD04FEA1262D2EB1363C1BFE4
:100A8000D218414048404140B8BF5B42192B88BF53
:100A9000704710F0004F40F4000020F07F4018BF76
:100AA000404211F0004F41F4000121F07F4118BF96
:100AB000494292EA030F3FD0A2F1010241FA03FC3E
:100AC00010EB0C00C3F1200301FA03F100F0004326
:100AD00002D5494260EB4000B0F5000F13D3B0F1EE
:100AE000807F06D340084FEA310102F10102FE2A5D
:100AF00051D2B1F1004F40EBC25008BF20F00100CD
:100B000040EA03007047490040EB0000013A28BF6B
:100B1000B0F5000FEDD2B0FA80FCACF1080CB2EBEE
:100B20000C0200FA0CF0AABF00EBC250524218436C
:100B3000BCBFD0401843704792F0000F81F4000111
:100B400006BF80F400000132013BB5E74FEA4103E4
:100B50007FEA226C18BF7FEA236C21D092EA030F50
:100B600004D092F0000F08BF0846704790EA010FCA
:100B70001CBF0020704712F07F4F04D1400028BFF7
:100B800040F00040704712F100723CBF00F50000D9
:100B9000704700F0004343F0FE4040F4000070470F
:100BA0007FEA226216BF08467FEA236301464202BB
:100BB00006BF5FEA412390EA010F40F480007047CE
:100BC0004FF0000304E000BF10F0004348BF404274
:100BD0005FEA000C08BF704743F0964301464FF0B0
:100BE00000001CE050EA010208BF70474FF000030C
:100BF0000AE000BF50EA010208BF704711F000434D
:100C000002D5404261EB41015FEA010C02BF84461C
:100C10000146002043F0B64308BFA3F18053A3F57B
:100C20000003BCFA8CF2083AA3EBC25310DB01FAC2
:100C300002FC634400FA02FCC2F12002BCF1004F46
:100C400020FA02F243EB020008BF20F001007047D7
:100C500002F1200201FA02FCC2F1200250EA4C002B
:100C600021FA02F243EB020008BF20EADC70704771
:100C70004FEA4002B2F1FE4F0FD34FF09E03B3EBA9
:100C800012620DD94FEA002343F0004310F0004FE9
:100C900023FA02F018BF404270474FF0000070473F
:100CA00012F1610F01D1420205D110F0004008BFDE
:100CB0006FF0004070474FF00000704710B5054CD2
:100CC000237833B9044B13B10448AFF300800123F8
:100CD000237010BD8000002000000000383B000899
:100CE00008B5034B1BB103490348AFF3008008BDAF
:100CF0000000000084000020383B000884B00F4B47
:100D00009A6942F020029A619A6902F020020192E7
:100D1000019A9A6942F008029A619A6902F00802FF
:100D20000292029A9A6942F004029A619B6903F066
:100D300004030393039B04B0704700BF00100240FC
:100D400008B50B480B4B03600B4B436000238360DB
:100D5000C3604FF48042026143618361C3610362F7
:100D600000F0AEFE00B908BD00F03EFAFBE700BFA0
:100D70009C00002000540040A086010010B586B001
:100D8000002302930393049305930268154B9A4240
:100D900001D006B010BD144CA36943F00803A36151
:100DA000A36903F008030093009B4FF44073029380
:100DB000122303930323059302A90C4800F018FBA8
:100DC0000B4A536843F0E06343F002035360E36966
:100DD00043F40013E361E36903F400130193019BFF
:100DE000D7E700BF0054004000100240000C014053
:100DF0000000014070B586B004468DF80F10002346
:100E0000ADF8143001780D4D4FF0FF3600960123F8
:100E10000DF10F029940284600F030FF217800962E
:100E2000022305AA4900284600F0E2FF9DF81400BD
:100E30009DF8153043EA002006B070BD9C000020EC
:100E400008B50221FFF7D6FFC0F3CF00FFF7BCFEC5
:100E50000149FFF75DF908BD6F12833B10B50446E9
:100E60000421FFF7C7FF6468FFF7AEFE2146FFF7D6
:100E70004FF910BD08B50121FFF7BCFFFFF7A4FE35
:100E80000149FFF745F908BDACC5273710B5044641
:100E90000321FFF7AFFF00EB800064688000FFF7DD
:100EA00093FE2146FFF734F910BD10B5044600212A
:100EB000FFF7A0FF2389984201D0002010BD012038
:100EC000FCE7000000B585B08DF80C10130A8DF812
:100ED0000D308DF80E2001784FF0FF33009303237F
:100EE00003AA4900044800F0C9FE18B1002005B06B
:100EF0005DF804FB0120FAE79C00002010B50446D1
:100F00004FF400420021FFF7DDFF78B10D4801F0FA
:100F1000ADFF00212046FFF76DFF43F69F13984277
:100F200008D0094801F0A2FF002010BD064801F0DA
:100F30009DFFEEE7238100236360024801F096FFE6
:100F40000120F2E7503B00086C3B000808B5FFF7B2
:100F5000D5FF08BD0000000070B5054608461446E0
:100F60004FF06051FFF7D4F806462146FFF7D0F85E
:100F7000FFF7E6FA02460B460DA1D1E90001FFF7A3
:100F800061FCFFF747FD84B2224605212846FFF7A2
:100F900099FF05212846FFF72DFF24F00104844224
:100FA00001D0002070BD6E600120FBE7AFF3008030
:100FB000F168E388B5F8A43F38B505460C460A4603
:100FC0000021FFF77FFF00212846FFF713FFA04213
:100FD00001D0002038BD2C810120FBE710B514465C
:100FE0004FF0FF3392B2024801F0DDFC204610BD05
:100FF000F800002008B51C4801F038FF1B48FFF737
:10100000A5FF18B11A48FFF7A1FF18B9194801F058
:101010002DFFFEE7184801F029FF184A1849134828
:10102000FFF79AFF28B1154A15491148FFF794FFB9
:1010300018B9144801F01AFFFEE7134801F016FF33
:1010400041F69F110948FFF7B7FF28B141F69F11FC
:101050000748FFF7B1FF18B90C4801F007FFFEE79A
:101060000B4801F003FF08BD843B00080C00002082
:1010700000000020903B0008A43B0008CDCCCC3DF4
:1010800000002040BC3B0008D83B0008F83B0008AB
:10109000183C00082DE9F84F4448FFF706FF18B93F
:1010A000434801F0E3FEFEE7404C2046FFF7C8FE50
:1010B00007462046FFF7DEFE06462046FFF7CEFE37
:1010C00005462046FFF7E2FE04463A48FFF7EDFEEC
:1010D00018B9394801F0CAFEFEE7DFF8D88040466B
:1010E000FFF7AEFE83464046FFF7C4FE8246404609
:1010F000FFF7B4FE81464046FFF7C8FE80462F4802
:1011000001F0B4FE2E493846FFF702F8FFF7B0FDB4
:1011100001462C4801F042FE29493046FEF7F8FF0F
:10112000FFF7A6FD0146284801F038FE244928466D
:10113000FEF7EEFFFFF79CFD0146244801F02EFE6E
:101140002046FFF795FD0146214801F027FE214882
:1011500001F08CFE1A495846FEF7DAFFFFF788FDCA
:1011600001461D4801F01AFE15495046FEF7D0FF12
:10117000FFF77EFD0146194801F010FE1049484670
:10118000FEF7C6FFFFF774FD0146154801F006FEA5
:101190004046FFF76DFD0146124801F0FFFD4FF498
:1011A0007A7000F0A7F8BDE8F88F00BF0C000020AF
:1011B0003C3C000800000020543C00086C3C000847
:1011C00000007A447C3C0008983C0008B83C0008C9
:1011D000D03C0008E83C0008F83C0008143D00083A
:1011E000343D00084C3D000872B6FEE710B590B0E3
:1011F00006AC28220021204601F016FF00230193AF
:101200000293039304930593012306934FF48033D1
:101210000793204600F0CEFF68B90F230193012306
:101220000293002103910491059101A801F0F4F9C2
:1012300018B910B010BDFFF7D7FFFFF7D5FF08B5FD
:1012400000F034F8FFF7D2FFFFF758FDFFF778FD05
:1012500001F05CFCFFF7CEFEFFF71CFFFCE700008F
:1012600010B504460E4B1A784FF47A73B3FBF2F3C1
:101270000C4A1068B0FBF3F000F0A6F868B90F2C28
:1012800001D901200AE0002221464FF0FF3000F092
:101290008BF8054B1C60002000E0012010BD00BF52
:1012A00018000020200000201C00002008B5074A7C
:1012B000136843F010031360032000F063F80F205D
:1012C000FFF7CEFF00F03EFF002008BD00200240E7
:1012D000034A1168034B1B780B441360704700BF2F
:1012E000F000002018000020014B1868704700BF74
:1012F000F000002038B50446FFF7F6FF0546B4F1CC
:10130000FF3F02D0044B1B781C44FFF7EDFF401B4E
:10131000A042FAD338BD00BF18000020002808DB27
:101320000901C9B200F1604000F5614080F8001386
:10133000704700F00F000901C9B2014B1954704702
:1013400014ED00E000B500F00700C0F1070CBCF19F
:10135000040F28BF4FF0040C031D062B0FD9C31E2A
:101360004FF0FF3E0EFA0CF021EA000199400EFA10
:1013700003FE22EA0E0241EA02005DF804FB0023AC
:10138000EEE70000074AD36823F4E0631B041B0C5C
:10139000000200F4E060034343F0BF6343F4003312
:1013A000D360704700ED00E010B50446054BD868E7
:1013B000C0F30220FFF7C6FF01462046FFF7AEFF4D
:1013C00010BD00BF00ED00E00138B0F1807F0BD20E
:1013D0004FF0E0235861054AF02182F823100020E5
:1013E000986107221A6170470120704700ED00E004
:1013F00070B582B00024A4469EE07C4DAB4214D070
:101400000CD8A5F58015AB420FD005F57025AB4281
:101410000BD0A5F58015AB421FD106E0744DAB4251
:1014200003D005F58035AB4217D18B68A3B1012BF2
:101430000DD04261082410E0CC680EE0CC68043482
:101440000BE0CC68083408E0CC680C3405E002619D
:10145000082402E0002400E00424BEF1FF0F37D886
:1014600006464FEA8C0233680F25954023EA0503B0
:1014700004FA02F2134333604B6813F0805F59D0D3
:101480005C4B9A6942F001029A619B6903F0010387
:101490000193019B4FEA9C02951C574B53F8256022
:1014A0000CF00305AD000F23AB4026EA0306534BB7
:1014B000984214D003F58063984279D003F5806395
:1014C000984277D003F58063984206D0042307E062
:1014D000061DACF108029200C5E7032300E00023DB
:1014E000AB4033430232444D45F822304B6813F48D
:1014F000801F61D0424A936843EA0E0393604B68B1
:1015000013F4001F5ED03E4AD36843EA0E03D36053
:101510004B6813F4003F5BD0394A536843EA0E032B
:1015200053604B6813F4803F58D0354A136843EA40
:101530000E0313600CF1010C0B6833FA0CF253D05C
:10154000012202FA0CF203EA020E32EA0303F1D19D
:101550004B68122B3FF651AF122B3FF67EAF01A521
:1015600055F823F02B140008391400084314000820
:10157000551400085B1400085B1400085B14000895
:101580005B1400085B1400085B1400085B1400087F
:101590005B1400085B1400085B1400085B1400086F
:1015A0005B1400085B1400083D140008491400088F
:1015B000012395E7022393E7114A936823EA0E0378
:1015C00093609CE70E4AD36823EA0E03D3609FE73B
:1015D0000B4A536823EA0E035360A2E7084A1368D4
:1015E00023EA0E031360A5E702B070BD00002210CD
:1015F00000003110001002400000014000080140CE
:101600000004014003685A6912F4806F01D1002080
:1016100070476FF480625A6100230363202280F8D0
:101620003D2080F83E30026C42F00402026480F8F3
:101630003C30012070472DE9F04106460C46174624
:1016400098463BE0FFF750FE069BC01A404502D883
:10165000B8F1000F32D1012D18D033689B6924EA0C
:1016600003039BB2B3FA83F35B099F4226D10023A5
:101670003363202286F83D2086F83E30326C42F0FB
:101680002002326486F83C30012027E033685B6931
:1016900024EA03039BB2B3FA83F35B09E5E73368FB
:1016A0005B6924EA030C1FFA8CFCBCFA8CFC4FEA41
:1016B0005C1C674511D1B8F1FF3FC3D1C4F30745A6
:1016C000012DECD033689B6924EA030C1FFA8CFCD3
:1016D000BCFA8CFC4FEA5C1CEBE70020BDE8F08113
:1016E0002DE9F84305460E469046994653E01A68A0
:1016F00042F400721A602B686FF480625A61002312
:101700002B63202285F83D2085F83E302A6C42F07C
:1017100004022A6485F83C3001204AE0FFF7E4FD2A
:10172000A0EB0900404502D8B8F1000F33D1012FDA
:1017300017D02B689B6926EA03039BB2003B18BFB6
:10174000012343B300232B63202285F83D2085F835
:101750003E302A6C42F020022A6485F83C30012099
:1017600027E02B685B6926EA03039BB2003B18BFA6
:101770000123E6E72B689C6926EA0404A4B2003C36
:1017800018BF0124A4B12B685A6912F4806FAED13E
:10179000B8F1FF3FC2D1C6F30747012FEAD12B684A
:1017A0005C6926EA0404A4B2003C18BF0124E9E7FE
:1017B0000020BDE8F8830000F0B583B004460D4674
:1017C00016461F46C36A082B0DD0012B0BD013F50C
:1017D000803F08D0036B122B0AD10268136843F4D0
:1017E0008073136004E02268136843F4807313600D
:1017F0000097334600224FF001112046FFF71BFFF0
:1018000080B92369B3F5804F16D1236805F0FE0532
:101810001D613B46324613492046FFF761FFF8B988
:1018200003B0F0BD23681B6813F4807F02D04FF42F
:10183000007323640320F3E7EB11226803F006032F
:1018400043F0F00313613B46324607492046FFF759
:1018500047FF18B92368EDB21D61DAE70120DFE721
:101860000120DDE702000100080001002DE9F04140
:1018700084B004460D4616461F46C26A01680B68CE
:1018800043F480630B60082A0DD0012A0BD012F5B7
:10189000803F08D0036B112B0AD10268136843F410
:1018A0008073136004E02268136843F4807313604C
:1018B0000097334600224FF001112046FFF7BBFE90
:1018C00098B92369B3F5804F19D1236845F0010514
:1018D000EDB21D613B4632462A492046FFF700FF24
:1018E00000284CD104B0BDE8F08123681B6813F4D4
:1018F000807F02D04FF4007323640320F2E74FEAA5
:10190000E51808F00608236848F0F0021A613B4623
:1019100032461D492046FFF7E3FE08B10120E1E70A
:101920002368EDB21D613B46324616492046FFF75B
:10193000D7FE08B10120D5E7002203922368596938
:101940000391996903910399196841F480711960B1
:10195000009733464FF001112046FFF76CFE20B987
:10196000226848F0F1031361B4E723681B6813F49D
:10197000807F02D04FF4007323640320B2E701207C
:10198000B0E700BF020001000800010070B5044686
:101990000D46164623685B6913F0800F21D120465F
:1019A000FFF730FEF8B9B5F1FF3FF3D0FFF79CFC2D
:1019B000801BA84201D8002DECD123685B6913F08D
:1019C000800FE7D100232363202284F83D2084F890
:1019D0003E30226C42F02002226484F83C30012028
:1019E00000E0002070BD0120FCE770B504460D4604
:1019F000164623685B6913F0040F21D12046FFF7D8
:101A000001FEF8B9B5F1FF3FF3D0FFF76DFC801B85
:101A1000A84201D8002DECD123685B6913F0040FB4
:101A2000E7D100232363202284F83D2084F83E3050
:101A3000226C42F02002226484F83C30012000E055
:101A4000002070BD0120FCE770B504460D46164627
:101A500014E06FF010025A6100232363202284F8FF
:101A60003D2084F83E30226C226484F83C30012012
:101A700025E023685B6913F0400F10D02368586994
:101A800010F0400F1AD1586910F0100FE1D1FFF794
:101A90002BFC801BA842ECD8002DEFD1E9E70023F6
:101AA0002363202284F83D2084F83E30226C42F0EB
:101AB0002002226484F83C30012000E0002070BD48
:101AC000002800F0CC8070B5044690F83D30002B23
:101AD00077D0242384F83D302268136823F0010373
:101AE00013602268136843F400431360226813688C
:101AF00023F40043136000F04BFE62685A4B9A4295
:101B000064D85A4B98428CBF00230123002B40F02D
:101B1000A8805749A1FB00318B0C25686A6822F028
:101B20003F0242EA91426A6021680A6A22F03F025B
:101B300066684D4DAE424FD8013313430B622168A6
:101B4000CA6922F44F4222F0FF026568464B9D426B
:101B50004CD8431E6D00B3FBF5F3013340F6FC7027
:101B6000034278D0C3F30B031A43CA6121680B68A0
:101B700023F0C003E269206A024313430B6021682B
:101B80008B6823F4034323F0FF032269E0680243D8
:101B900013438B602168CB6823F0FF036269A0695F
:101BA00002431343CB602268136843F001031360C0
:101BB00000202064202384F83D30206384F83E0018
:101BC00070BD80F83C30FFF7D9F882E7294B984286
:101BD0008CBF0023012399E74FF4967505FB03F3AF
:101BE000254DA5FB03539B090133A6E7A668BEB9A3
:101BF000431E05EB450CB3FBFCF30133C3F30B03AE
:101C0000B3FA83F35B0943BBC6B9431E05EB450535
:101C1000B3FBF5F30133C3F30B0343F40043A3E732
:101C2000431E05EB850C0CEB8C0CB3FBFCF3013372
:101C3000C3F30B03B3FA83F35B09E4E7431E05EB3D
:101C4000850505EB8505B3FBF5F30133C3F30B0302
:101C500043F4404388E7042386E7012384E7012017
:101C600070470120ACE700BFA08601007F841E0002
:101C700083DE1B43FF083D00D34D62102DE9F04386
:101C800085B004460F46904699460C9EFFF72CFB04
:101C900094F83D10202904D00227384605B0BDE84D
:101CA000F08305460090192301224F492046FFF793
:101CB000C2FC002840F0928094F83C30012B00F0E8
:101CC0008F80012384F83C3023681A6812F0010FDA
:101CD00003D11A6842F001021A602268136823F4E3
:101CE00000631360212384F83D30102384F83E30D4
:101CF00000232364C4F82480A4F82A90638D2385EC
:101D00003A4BE3622B46324639462046FFF754FDF4
:101D10000746002866D10023039323685A6903927B
:101D20009B690393039B11E0236C042B01D00127D3
:101D3000B3E72268136843F400731360F7E72A4699
:101D400031462046FFF751FE00282ED1238D002B6F
:101D500036D02A4631462046FFF718FE0028E3D148
:101D6000626A236812781A61606A431C6362618D3B
:101D700089B2013989B26185238D013B9BB22385EC
:101D80002268516911F0040FD9D0002BD7D04378C5
:101D90001361636A01336362638D9BB2013B9BB243
:101DA0006385238D013B2385C9E7236C042B01D078
:101DB000012772E72268136843F400731360F7E7A2
:101DC0002268136843F400731360202384F83D30C5
:101DD000002384F83E3084F83C305EE702275CE75D
:101DE00002275AE7012758E7020010000000FFFF12
:101DF0002DE9F04389B004460F4691469846109E5F
:101E000000230793FFF770FA94F83D30202B04D09D
:101E10000227384609B0BDE8F08305460090192333
:101E200001229E492046FFF706FC002840F07D81F4
:101E300094F83C30012B00F07A81012384F83C3087
:101E400023681A6812F0010F03D11A6842F00102E8
:101E50001A602268136823F400631360222384F855
:101E60003D30102384F83E3000232364C4F82490CE
:101E7000A4F82A80638D2385894BE3622B46324682
:101E800039462046FFF7F2FC0746002840F0518112
:101E9000238D5BB9039323685A6903929A6903926D
:101EA000039A1A6842F400721A6076E0012B0FD090
:101EB000022B21D02268136843F48063136000234F
:101EC000069323685A6906929B690693069B64E011
:101ED0002268136823F48063136072B600230493AE
:101EE00023685A6904929A690492049A1A6842F41F
:101EF00000721A6062B650E02268136843F400630F
:101F0000136072B60023059323685A6905929A6993
:101F10000592059A1A6822F480621A6062B63CE063
:101F20002A4631462046FFF78FFD002840F0038106
:101F300023681A69636A1A70636A01336362238DC6
:101F4000013B2385638D9BB2013B9BB2638524E0FB
:101F500072B62268136843F40073136023681A6929
:101F6000636A1A70636A01336362238D013B2385C0
:101F7000638D9BB2013B9BB2638562B623681A698D
:101F8000636A1A70636A01336362238D013B2385A0
:101F9000638D9BB2013B9BB26385218D002900F0CC
:101FA000BB80032900F284800129B9D002290AD11B
:101FB0000095334600223B492046FFF73CFB0028B2
:101FC000C6D0012725E70095334600223549204633
:101FD000FFF731FB002840F0B0802268136823F43B
:101FE0008063136072B623681A69636A1A70636A41
:101FF00001336362238D013B2385638D9BB2013BDB
:102000009BB26385284B1B68DB08284AA2FB03238D
:102010001B0A03EB8303C3EBC3030793079901393F
:1020200007910799002928D023685A6912F0040FF4
:10203000F4D01A6842F400721A6023681A69636A5D
:102040001A70636A01336362238D013B2385638DBC
:102050009BB2013B9BB2638562B623681A69636ACF
:102060001A70636A01336362238D013B2385638D9C
:102070009BB2013B9BB263858FE700232363202241
:1020800084F83D2084F83E30226C42F02002226425
:1020900062B684F83C300127BBE600BF02001000A6
:1020A0000000FFFF040001002000002089B5F814A3
:1020B0002A4631462046FFF7C7FC00283FD1236857
:1020C0001A69636A1A70636A01336362228D013A86
:1020D00092B22285638D9BB2013B9BB263852368DC
:1020E000596911F0040F3FF458AF032A0FD0236849
:1020F0001A69636A1A70636A01336362238D013B54
:102100002385638D9BB2013B9BB2638545E71A68CB
:1021100022F480621A60EAE7202384F83D3000232D
:1021200084F83E3084F83C3073E6022771E60227DB
:102130006FE601276DE601276BE6012769E60127B7
:1021400067E600BF82B00E4B9A6942F001029A61C5
:102150009A6902F001020092009ADA6942F0805214
:10216000DA61DB6903F080530193019B054A5368F0
:1021700023F0E06343F00073536002B0704700BF88
:10218000001002400000014082B0084B1B68084A62
:10219000A2FB03235B0A00FB03F3019300BF019B37
:1021A0005A1E0192002BF9D102B070472000002086
:1021B000D34D6210002800F0F18170B582B0044662
:1021C000036813F0010F2CD0994B5B6803F00C03EC
:1021D000042B1DD0964B5B6803F00C03082B12D028
:1021E0006368B3F5803F41D0002B55D103F18043A4
:1021F00003F504331A6822F480321A601A6822F454
:1022000080221A6037E08A4B5B6813F4803FE7D086
:10221000874B1B6813F4003F03D06368002B00F06A
:10222000BF81236813F0020F75D0814B5B6813F0F8
:102230000C0F5FD07E4B5B6803F00C03082B54D06F
:102240002369002B00F08A807A4B01221A60FFF785
:102250004BF80546764B1B6813F0020F75D1FFF75C
:1022600043F8401B0228F5D903209EE1704A136809
:1022700043F480331360636843B3FFF735F80546D2
:102280006B4B1B6813F4003FCBD1FFF72DF8401BBD
:102290006428F5D9032088E1B3F5A02F09D0644B59
:1022A0001A6822F480321A601A6822F480221A60B6
:1022B000E1E703F18043A3F53C331A6842F480223E
:1022C0001A601A6842F480321A60D4E7FFF70CF8FB
:1022D0000546574B1B6813F4003FA2D0FFF704F8E4
:1022E000401B6428F5D903205FE1514B5B6813F470
:1022F000803FA5D14E4B1B6813F0020F03D023691A
:10230000012B40F04F814A4A136823F0F8036169BA
:1023100043EAC1031360236813F0080F33D0A369A5
:10232000002B5CD0434B0122C3F88024FEF7DCFF76
:1023300005463F4B5B6A13F0020F21D1FEF7D4FF35
:10234000401B0228F5D903202FE1394A136823F0F6
:10235000F803616943EAC1031360DCE7354B0022EF
:102360001A60FEF7C1FF0546314B1B6813F0020FE0
:10237000D1D0FEF7B9FF401B0228F5D9032014E1A4
:102380000120FFF701FF236813F0040F00F096808F
:10239000274BDB6913F0805F34D1254BDA6942F0BB
:1023A0008052DA61DB6903F080530193019B0125C0
:1023B000214B1B6813F4807F26D0E368012B3DD0AE
:1023C000002B53D103F1804303F504331A6A22F042
:1023D00001021A621A6A22F004021A6233E0154BF3
:1023E0000022C3F88024FEF77FFF0546104B5B6A8E
:1023F00013F0020FC7D0FEF777FF401B0228F5D974
:102400000320D2E00025D3E70B4A136843F480731E
:102410001360FEF769FF0646074B1B6813F4807FC5
:10242000CBD1FEF761FF801B6428F5D90320BCE007
:102430000010024000004242007000405F4A136AF0
:1024400043F001031362E36833B3FEF74DFF064622
:102450005A4B1B6A13F0020F2FD1FEF745FF801B6A
:1024600041F288339842F3D903209EE0052B09D02E
:10247000524B1A6A22F001021A621A6A22F004020E
:102480001A62E0E74D4B1A6A42F004021A621A6AB5
:1024900042F001021A62D6E7FEF726FF0646474BD6
:1024A0001B6A13F0020F08D0FEF71EFF801B41F2DB
:1024B00088339842F3D9032077E0E5B9E369002B2C
:1024C00072D03E4A526802F00C02082A56D0022B03
:1024D00017D03B4B00221A66FEF706FF0446374B27
:1024E0001B6813F0007F47D0FEF7FEFE001B02289A
:1024F000F5D9032059E0314AD36923F08053D361E1
:10250000DCE72F4B00221A66FEF7EEFE05462B4B4A
:102510001B6813F0007F06D0FEF7E6FE401B022882
:10252000F5D9032041E0236AB3F5803F1AD023494F
:102530004B6823F47413226A606A024313434B60AE
:102540001F4B01221A66FEF7CFFE04461B4B1B6889
:1025500013F0007F0ED1FEF7C7FE001B0228F5D94D
:10256000032022E0154A536823F40033A1680B438B
:102570005360DCE7002018E0002016E0012B16D0A5
:102580000E4B5B6803F48031226A914211D103F44F
:102590007013626A93420ED1002006E0012070475A
:1025A000012002E0012000E0002002B070BD012007
:1025B000FBE70120F9E70120F7E700BF0010024028
:1025C000000042420F4B5B6803F00C02082A01D066
:1025D0000D487047C3F383420C49885C13F4803F75
:1025E0000BD0084B5B68C3F34043094AD35C064AEF
:1025F00002FB00F0B0FBF3F07047064B03FB00F06A
:10260000704700BF0010024000127A00683D0008C9
:10261000643D000800093D00002800F0A08070B56E
:102620000D460446524B1B6803F007038B420BD246
:102630004F4A136823F007030B431360136803F03A
:1026400007038B4240F08D80236813F0020F17D0F0
:1026500013F0040F04D0474A536843F4E063536017
:10266000236813F0080F04D0424A536843F46053C0
:102670005360404A536823F0F003A1680B43536052
:10268000236813F0010F31D06368012B20D0022B97
:1026900025D0384A126812F0020F64D035494A68D2
:1026A00022F0030213434B60FEF71EFE0646314B39
:1026B0005B6803F00C036268B3EB820F16D0FEF781
:1026C00013FE801B41F288339842F0D9032045E085
:1026D000284A126812F4003FE0D101203EE0254A6A
:1026E000126812F0007FD9D1012037E0204B1B681F
:1026F00003F00703AB420AD91D4A136823F007030E
:102700002B431360136803F00703AB422DD12368FA
:1027100013F0040F06D0174A536823F4E063E1680E
:102720000B435360236813F0080F07D0114A536816
:1027300023F46053216943EAC1035360FFF742FF6A
:102740000C4B5B68C3F303130B4AD35CD8400B4BB1
:1027500018600B4B1868FEF783FD002070BD012048
:1027600070470120FAE70120F8E70120F6E700BFF3
:102770000020024000100240803D000820000020A0
:102780001C000020014B1868704700BF200000208B
:1027900008B5FFF7F7FF044B5B68C3F30223034A56
:1027A000D35CD84008BD00BF00100240783D00084F
:1027B00008B5FFF7E7FF044B5B68C3F3C223034A86
:1027C000D35CD84008BD00BF00100240783D00082F
:1027D000026802F10C0353E8003F23F490730C32BB
:1027E00042E800310029F3D1026802F1140353E8F2
:1027F000003F23F00103143242E800310029F3D1F5
:10280000036B012B05D0202380F8423000230363A3
:102810007047026802F10C0353E8003F23F01003F5
:102820000C3242E800310029F3D1ECE710B5044640
:102830000268136923F44053C1680B431361836832
:102840000269134342691A430168CB6823F4B05309
:1028500023F00C031343CB600268536923F44073E5
:1028600081690B4353610268134B9A4220D0FFF7F2
:102870008FFF024602EB820202EB820263689B003A
:10288000B2FBF3F20D48A0FB02314909642303FBBC
:1028900011231B013233A0FB03035B0903F0F00299
:1028A00002EB011203F00F03216813448B6010BD8B
:1028B000FFF77EFF0246DDE7003801401F85EB5140
:1028C0002DE9F04383B005460E4617469946DDF8DC
:1028D00028802B681C6836EA04040CBF01240024FD
:1028E000BC4228D1B8F1FF3FF3D0FEF7FDFCA0EBCE
:1028F0000900404523D8B8F1000F22D02B68DA68D0
:1029000012F0040FE5D0802EE3D0402EE1D01A68FB
:1029100012F0080FDDD0002401941A6801925B6860
:102920000193019B2846FFF753FF08236B6485F84A
:102930004040012000E0002003B0BDE8F083032008
:10294000FAE70320F8E760B310B5044690F8413089
:1029500013B3242384F841302268D36823F400534E
:10296000D3602046FFF762FF2268136923F4904387
:1029700013612268536923F02A0353612268D368E4
:1029800043F40053D36000206064202384F8413076
:1029900084F84230606310BD80F8403000F0D0F819
:1029A000D7E7012070472DE9F04182B01E4690F82C
:1029B0004130202B56D104460D469046002955D073
:1029C0000AB901204FE000234364212380F84130FD
:1029D000FEF78AFC0746A4F82480A4F82680A368A2
:1029E000B3F5805F02D04FF0000814E023692BB3E9
:1029F0004FF000080FE0202384F84130032032E03C
:102A000038F8023B2268C3F308035360E28C92B2A9
:102A1000013A92B2E284E38C9BB293B100963B46BA
:102A2000002280212046FFF74BFF0028E3D1002D34
:102A3000E6D015F8012B23685A60E7E7A846002581
:102A4000E9E700963B46002240212046FFF738FF89
:102A500018B9202384F8413005E0202384F8413060
:102A6000032000E0022002B0BDE8F0810120FAE777
:102A7000FEE7FEE7FEE7FEE7FEE7704770477047B8
:102A800008B5FEF725FC08BD70B50C4616460025B6
:102A900006E0AFF30080214601F8010B01350C463A
:102AA000B542F6DB304670BD4FF0FF3070474FF453
:102AB00000534B6000207047012070470020704792
:102AC00010B503460C4A0D490D48006840B10C484A
:102AD00000680344521A934206D8094A136010BD95
:102AE0000748084C0460F2E700F0ECFA0C2303609E
:102AF0004FF0FF30F3E700BF00500020000400005B
:102B0000F4000020900200207047000008B50A4839
:102B10000A4B03604FF4E133436000238360C360DA
:102B200003610C2242618361C361FFF70CFF00B9AE
:102B300008BDFEF759FBFBE7F80000200038014014
:102B400030B587B000230293039304930593026882
:102B50001A4B9A4201D007B030BD03F558439A6929
:102B600042F480429A619A6902F480420092009A8B
:102B70009A6942F004029A619B6903F0040301938D
:102B8000019B40230293022303930323059302AD89
:102B90000B4C29462046FEF72BFC80230293002392
:102BA0000393049329462046FEF722FC054A536806
:102BB00043F0E06343F004035360CCE70038014086
:102BC000000C014000000140FFF79EFF0B480C493C
:102BD0000C4A002302E0D458C4500433C4188C4279
:102BE000F9D3094A094C002301E013600432A242E0
:102BF000FBD300F06DFAFEF722FB704700000020C7
:102C000080000020CC3D0008800000208C020020C5
:102C1000FEE70000002310B50446C0E90033C0E918
:102C20000433836081814366C2818361194608222F
:102C30005C3000F0F9F90D4B246263620C4BA36227
:102C40000C4BE3620C4B23630C4B9C4206D003F10C
:102C50006802944202D0D0339C4205D104F158005E
:102C6000BDE8104000F058BA10BD00BF7D2E00082E
:102C70009F2E0008D72E0008FD2E000840010020DE
:102C8000024A0349034800F06BB800BF240000204B
:102C9000AD3900083400002041680C4B10B5994252
:102CA000044601D000F082FEA168094B994202D08F
:102CB000204600F07BFEE168064B994204D0204696
:102CC000BDE8104000F072BE10BD00BF4001002002
:102CD000A8010020100200200C4B0D4A10B5042161
:102CE0001A600C480022FFF795FF0A4B01221C4690
:102CF000092103F16800FFF78DFF04F1D0000222E3
:102D0000BDE810401221FFF785BF00BF7802002008
:102D1000812C000840010020014800F0FEB900BFEE
:102D200081020020014800F0F9B900BF81020020B3
:102D300010B50446FFF7F0FF236A1BB1BDE8104051
:102D4000FFF7F0BF044B2362044B1B68002BF5D147
:102D5000FFF7C2FFF2E700BF992C000878020020BD
:102D60002DE9F8430746884614460026D4E9019524
:102D7000B9F1010905D52468002CF7D13046BDE82A
:102D8000F883AB89012B07D9B5F90E30013303D095
:102D900029463846C04706436835E9E70FB407B50A
:102DA000064904AB086853F8042B8168019300F0CE
:102DB000D5FA03B05DF804EB04B070473000002092
:102DC000036A70B505460E4684680BB9FFF7B0FF7D
:102DD000636EDB0705D4A389980502D4A06D00F0CB
:102DE0009CF9A389190702D52369002B35D1214607
:102DF000284600F0C5F880B34FF0FF35636EDA0760
:102E000005D4A3899B0502D4A06D00F087F928465C
:102E100070BD002B04DAA269934217DB0A2915D092
:102E200023685A1C22601970A36816F8011F013B21
:102E3000A3600029EDD1002B11DA22460A21284691
:102E400000F060F80130D7D00A25D7E7224628469F
:102E500000F058F80130E7D1CEE7013EE4E72368FF
:102E60005A1C22600A221A70EEE70000024B01464B
:102E70001868FFF7A5BF00BF3000002010B50C4652
:102E8000B1F90E1000F0FAF80028ABBF636DA3890A
:102E90001B1823F48053ACBF6365A38110BD2DE9DB
:102EA000F0411F468B890546DB050C46164605D5C5
:102EB00002230022B1F90E1000F0CEF8A3893246A9
:102EC00023F48053A38128463B46B4F90E10BDE895
:102ED000F04100F0E5B810B50C46B1F90E1000F065
:102EE000BBF8B4F90C30421C0BBF23F4805343F4FD
:102EF0008053A381A38118BF606510BDB1F90E1086
:102F000000F09AB8F8B50E461446054618B1036AA3
:102F10000BB9FFF70DFFA369A360A3891A0701D5B9
:102F2000236943B92146284600F02AF818B14FF02A
:102F3000FF373846F8BD23682269F6B2981A6369EC
:102F40003746834205DC2146284600F02FFD002845
:102F5000EDD1A368013BA36023685A1C22601E7058
:102F60006269431C9A4204D0A389DB07E1D50A2E8B
:102F7000DFD12146284600F019FD0028D9D0D6E738
:102F800038B5284B054618680C4618B1036A0BB9CA
:102F9000FFF7CEFEB4F90C301A0721D4D80607D4B7
:102FA00009222A6043F040034FF0FF30A38130E054
:102FB000590712D5616B41B104F14403994202D023
:102FC000284600F0ADF8002363630022B4F90C300A
:102FD0006260226923F02403226043F00803A38186
:102FE00022693AB99A0501D5180603D52146284623
:102FF00000F028FDB4F90C3013F001020AD00022D1
:10300000A26062695242A261226942B913F0800053
:10301000C8D138BD990758BF6269A260F4E70020A3
:10302000F7E700BF3000002003460244934200D17E
:10303000704703F8011BF9E738B50023054D044636
:1030400008462B60FFF730FD431C02D12B6803B10B
:10305000236038BD7C02002038B50446084611467E
:103060000022054D2A601A46FFF728FD431C02D1B5
:103070002B6803B1236038BD7C02002038B50446BC
:10308000084611460022054D2A601A46FFF7FCFC4F
:10309000431C02D12B6803B1236038BD7C020020A1
:1030A00038B50446084611460022054D2A601A46E6
:1030B000FDF794FF431C02D12B6803B1236038BD98
:1030C0007C020020014B1868704700BF30000020D0
:1030D00070B500260C4D0D4B5B1B9C10A64209D110
:1030E000002600F029FD0A4D0A4B5B1B9C10A642EE
:1030F00005D170BD55F8043B98470136EEE755F809
:10310000043B98470136F2E7C43D0008C43D00087F
:10311000C43D0008C83D0008704770477047000074
:1031200038B50546002940D051F8043C0C1F002B4F
:10313000B8BFE41800F0DEF81C4A136833B96360C6
:1031400014602846BDE8384000F0DAB8A34208D938
:10315000206821188B4201BF19685B68091821603B
:10316000EDE71A465B680BB1A342FAD91168501813
:10317000A0420BD120680144501883421160E0D175
:1031800018685B68084410605360DAE702D90C23C2
:103190002B60D6E7206821188B4201BF19685B6855
:1031A0000918216063605460CBE738BD88020020B5
:1031B00070B50F4E0C463168054611B900F09EFC03
:1031C00030602146284600F099FC431C03D14FF0A3
:1031D000FF34204670BDC41C24F00304A042F8D084
:1031E000211A284600F08AFC0130F2D1EFE700BF37
:1031F000840200202DE9F843CD1C25F00305083595
:103200000C2D38BF0C25002D064601DBA94204D940
:103210000C2333600020BDE8F883DFF8D48000F091
:1032200069F8D8F800301C4644BB29463046FFF701
:10323000BFFF431C044658D1D8F800402746002F52
:1032400043D1002C4BD023683946304604EB0309A8
:1032500000F054FC814542D1216830466D1A294660
:10326000FFF7A6FF01303AD023682B442360D8F83B
:1032700000305A6862BBC8F800700FE02268521B29
:1032800020D40B2A17D96119A342256018BF5960B1
:10329000636808BFC8F8001062514B60304600F008
:1032A0002FF804F10B00231D20F00700C21A1CBFE9
:1032B0001B1AA350AFE76268A3420CBFC8F80020F6
:1032C0005A60EBE723466468AEE73C467F68B6E7A2
:1032D0001A465B68A342FBD100235360DEE70C2350
:1032E0003046336000F00CF894E70560D6E700BF85
:1032F000880200200148FFF710BF00BF80020020B5
:103300000148FFF70BBF00BF80020020936810B494
:10331000013B002B936007DA9469A34201DB0A2981
:1033200002D110BCFFF7EEBD1368581C1060197075
:10333000084610BC7047F8B506460F461446D51827
:10334000AC4201D1002007E03A46304614F8011B98
:10335000FFF7DCFF431CF3D1F8BD00002DE9F04F6F
:103360000D461446984606469DB018B1036A0BB93F
:10337000FFF7DEFC6B6ED90705D4AB899A0502D442
:10338000A86DFFF7CAFEAB891B0701D52B699BB956
:1033900029463046FFF7F4FD70B16B6EDC0704D5AB
:1033A0004FF0FF301DB0BDE8F08FAB899805F7D422
:1033B000A86DFFF7B3FEF3E70023099320238DF8F0
:1033C000293030234FF00109CDF80C80DFF8A881B7
:1033D0008DF82A3023469A4613F8012B0AB1252A84
:1033E000F9D1BAEB040B0BD05B4622462946304696
:1033F000FFF7A1FF013000F0A780099A5A44099213
:103400009AF80030002B00F09F8000234FF0FF322D
:10341000CDE905230AF1010A049307938DF853308F
:103420001A935446052214F8011B534800F076FB0A
:10343000049AD8B9D10644BF20238DF8533013071E
:1034400044BF2B238DF853309AF800302A2B15D027
:10345000544600204FF00A0C079A214611F8013B10
:10346000303B092B4BD9B0B1079214E0A0EB080315
:1034700009FA03F31343A2460493D2E7039B191DF1
:103480001B680391002BBBBF5B4242F00202079313
:103490000793B8BF049223782E2B0AD163782A2B86
:1034A00032D1039B02341A1D1B68039243EAE37373
:1034B0000593DFF8C8A003225046217800F02EFBC8
:1034C00038B14022049BA0EB0A0082401343013430
:1034D000049314F8011B062229488DF8281000F0E7
:1034E0001DFB00283FD0274B1BBB039B073323F05A
:1034F000070308330393099B3B4409936AE70C468F
:1035000001200CFB0232A8E700234FF00A0C1946F9
:1035100001340593204610F8012B303A092A03D9CB
:10352000002BC6D00591C4E7044601230CFB012102
:10353000F0E703AB00932A463046134B04A9AFF3E0
:1035400000800746781CD6D16B6ED90705D4AB89AD
:103550009A0502D4A86DFFF7E1FDAB895B063FF544
:103560001FAF09981EE703AB00932A463046064B6F
:1035700004A900F07DF8E4E7903D0008963D0008BE
:103580009A3D000800000000373300082DE9F0479D
:10359000164698468A680B6907469342B8BF134699
:1035A000336091F843200C46DDF820900AB10133D6
:1035B00033602368990642BF33680233336025685D
:1035C00015F0060506D104F1190AE36832689B1A62
:1035D000AB422BDC94F843302268003B18BF012338
:1035E000920630D44146384604F14302C8470130C0
:1035F00023D02368226903F00603042B14BF00259F
:1036000033684FF0000608BFE56804F11A0408BFEC
:10361000ED1A54F8123C08BF25EAE5759342C4BF81
:103620009B1AED18B5421AD1002008E0012352463A
:1036300041463846C847013003D14FF0FF30BDE85E
:10364000F0870135C1E73020E11881F843005A1CAA
:1036500094F845102244023382F84310C2E7012354
:10366000224641463846C8470130E6D00136D9E700
:103670002DE9FF470F7E9146782F80460C469A46EB
:103680000C9E01F1430207D8622F0AD8002F00F0E8
:10369000D280582F00F0B78004F1420684F84270BF
:1036A0003AE0A7F16303152BF6D801A151F823F0F6
:1036B000093700081D3700089936000899360008B8
:1036C00099360008993600081D3700089936000819
:1036D0009936000899360008993600081D38000808
:1036E00047370008D3370008993600089936000894
:1036F0003F38000899360008473700089936000817
:1037000099360008DB37000833681A1D1B683260E1
:1037100004F1420684F8423001239DE033682068BA
:10372000191D3160060601D51D6803E04506FBD56D
:10373000B3F90050002D03DA2D236D4284F8433095
:103740000A23594810E021683368080653F8045BDF
:1037500002D4490648BFADB26F2F5348336059D1E8
:103760000823002184F843106668002EA66005DB5C
:1037700021682E4321F0040121604DD01646B5FB8F
:10378000F3F103FB1157C75D06F8017D2F46BB42DD
:103790000D46F4D9082B0BD12368DF0708D5236920
:1037A00061689942DEBF302306F8013C06F1FF361E
:1037B000921B22614B4621464046CDF800A003AA49
:1037C000FFF7E4FE01304CD14FF0FF3004B0BDE80C
:1037D000F087236843F0200323607827334884F878
:1037E0004570236831681F0651F8045B02D45F06F8
:1037F00048BFADB23160D90744BF43F02003236016
:103800001DB11023ADE72848E9E7236823F0200322
:103810002360F6E70A23A4E71646BBE7336825686A
:10382000181D616930602E061B6801D5196002E021
:103830006806FBD51980002316462361BAE7336872
:1038400000211A1D32601E686268304600F066F979
:1038500008B1801B606063682361002384F84330F3
:10386000A8E73246494640462369D0470130ABD0ED
:1038700023689B0713D4E068039B9842B8BF18469F
:10388000A4E70123324649464046D04701309BD049
:103890000135E36803995B1AAB42F2DCEBE70025E4
:1038A00004F11906F5E700BFA13D0008B23D00088C
:1038B000B1F90C20F8B5160705460C4651D44B68F3
:1038C000002B02DC0B6C002B49DDE66A002E46D093
:1038D000002312F480522F682B6031D0626DA389CF
:1038E000590705D56368D21A636B0BB1236CD21AE2
:1038F00000232846E66A216AB047421CB4F90C301E
:1039000006D129681D2945D8274ACA40D60741D57E
:10391000002262602269D904226004D5421C01D1D0
:103920002B6803B96065616B2F60C1B104F144037A
:10393000994202D02846FFF7F3FB002363630EE0B1
:1039400001232846216AB0470246501CC7D12B6884
:10395000002BC4D01D2B01D0162B19D12F600020B5
:103960001DE00F69002FFAD0930718BF00230E68DF
:1039700008BF4B69F61B0F608B60002EEFDD3346EE
:103980003A462846216AD4F828C0E047002807DCD8
:10399000B4F90C304FF0FF3043F04003A381F8BD81
:1039A0000744361AE9E700BF0100402038B50B692B
:1039B00005460C4613B90025284638BD18B1036AE0
:1039C0000BB9FFF7B5F9B4F90C30002BF3D0626EE8
:1039D000D00704D4990502D4A06DFFF79EFB2846BA
:1039E0002146FFF765FF636E0546DA07E4D4A38935
:1039F0009B05E1D4A06DFFF791FBDDE770B50C46A8
:103A0000B1F90E10154600291E4696B00ADAA189B2
:103A100011F0800113D14FF48062002031602A60E0
:103A200016B070BD6A4600F047F80028EFDB019938
:103A300001F47041A1F5005359425941EBE70021CF
:103A40004022EAE78B8973B59E0705460C4607D5E9
:103A500004F14703236023610123636102B070BD59
:103A600001AB6A46FFF7CAFF009E28463146FFF7C2
:103A7000C1FBB4F90C3038B99A05EFD423F0030335
:103A800043F00203A381E3E743F08003A381019B9A
:103A9000C4E904062060002BE0D02846B4F90E10DB
:103AA00000F01CF80028D9D0A38923F0030343F0C9
:103AB0000103A381D2E7000038B50023064D044678
:103AC000084611462B60FEF7F2FF431C02D12B681B
:103AD00003B1236038BD00BF7C02002038B500234D
:103AE000054D044608462B60FEF7E6FF431C02D155
:103AF0002B6803B1236038BD7C02002038B5002359
:103B0000054D044608462B60FEF7DAFF431C02D140
:103B10002B6803B1236038BD7C020020034610B53A
:103B2000C9B202449342184601D1002003E0047850
:103B300001338C42F6D110BDF8B500BFF8BC08BC0B
:103B40009E467047F8B500BFF8BC08BC9E4670475B
:103B5000494E413231392072657365742073756343
:103B60006365737366756C2100000000494E413235
:103B70003139207265736574206661696C656421F2
:103B8000000000004E616D6173746521000000004B
:103B9000494E4132313920696E6974206661696C21
:103BA00065642100494E4132313920696E697420C3
:103BB0007375636365737366756C2100494E41329A
:103BC00031392063616C6962726174696F6E20665D
:103BD00061696C6564210000494E413231392063CE
:103BE000616C6962726174696F6E2073756363657D
:103BF000737366756C210000494E41323139206380
:103C00006F6E66696775726174696F6E206661694F
:103C10006C65642100000000494E41323139206357
:103C20006F6E66696775726174696F6E2073756314
:103C30006365737366756C210000000042617474E3
:103C40006572792053656E736F72204572726F7260
:103C50002100000053797374656D2053656E736F96
:103C600072204572726F722100000000424154546C
:103C70004552592053454E534F52000042617474CF
:103C80006572792042757320566F6C746167653A6E
:103C9000202564206D560A00426174746572792093
:103CA0005368756E7420566F6C746167653A202591
:103CB00064206D560A0000004261747465727920B8
:103CC00043757272656E743A202564206D410A0056
:103CD0004261747465727920506F7765723A20255D
:103CE0006420570A0A00000053595354454D20538D
:103CF000454E534F5200000053797374656D204256
:103D0000757320566F6C746167653A202564206D69
:103D1000560A000053797374656D205368756E748C
:103D200020566F6C746167653A202564206D560AD1
:103D30000000000053797374656D204375727265DD
:103D40006E743A202564206D410A00005379737423
:103D5000656D20506F7765723A20256420570A0AF6
:103D60000000000001020000020304050607080924
:103D70000A0B0C0D0E0F10100000000001020304CE
:103D8000000000000000000001020304060708090B
:103D9000232D302B2000686C4C0065666745464734
:103DA00000303132333435363738394142434445B7
:103DB0004600303132333435363738396162636426
:043DC0006566000034
:043DC400E10C000806
:043DC800BD0C000826
:103DCC004100000000000000000000004000000066
:103DDC0000000000000000000100000010000000C6
:103DEC0000127A00000000000300000040010020D7
:103DFC00340000200000000040010020A801002039
:103E0C001002002000000000000000000000000074
:103E1C000000000000000000000000000000000096
:103E2C000000000000000000000000000000000086
:103E3C000000000000000000000000000000000076
:0400000508002BC9FB
:00000001FF
